{
  "_format": "hh-sol-artifact-1",
  "contractName": "BillPayEscrow",
  "sourceName": "contracts/BillPayEscrow.sol",
  "abi": [
    {
      "inputs": [
        {
          "internalType": "address",
          "name": "_cngn",
          "type": "address"
        }
      ],
      "stateMutability": "nonpayable",
      "type": "constructor"
    },
    {
      "anonymous": false,
      "inputs": [
        {
          "indexed": true,
          "internalType": "uint256",
          "name": "billId",
          "type": "uint256"
        }
      ],
      "name": "BillCompleted",
      "type": "event"
    },
    {
      "anonymous": false,
      "inputs": [
        {
          "indexed": true,
          "internalType": "uint256",
          "name": "billId",
          "type": "uint256"
        },
        {
          "indexed": true,
          "internalType": "address",
          "name": "payer",
          "type": "address"
        },
        {
          "indexed": false,
          "internalType": "string",
          "name": "billType",
          "type": "string"
        },
        {
          "indexed": false,
          "internalType": "uint256",
          "name": "amount",
          "type": "uint256"
        }
      ],
      "name": "BillCreated",
      "type": "event"
    },
    {
      "inputs": [
        {
          "internalType": "uint256",
          "name": "",
          "type": "uint256"
        }
      ],
      "name": "bills",
      "outputs": [
        {
          "internalType": "address",
          "name": "payer",
          "type": "address"
        },
        {
          "internalType": "string",
          "name": "billType",
          "type": "string"
        },
        {
          "internalType": "string",
          "name": "accountNumber",
          "type": "string"
        },
        {
          "internalType": "uint256",
          "name": "amount",
          "type": "uint256"
        },
        {
          "internalType": "bool",
          "name": "completed",
          "type": "bool"
        },
        {
          "internalType": "uint256",
          "name": "timestamp",
          "type": "uint256"
        }
      ],
      "stateMutability": "view",
      "type": "function"
    },
    {
      "inputs": [],
      "name": "cngn",
      "outputs": [
        {
          "internalType": "contract IERC20",
          "name": "",
          "type": "address"
        }
      ],
      "stateMutability": "view",
      "type": "function"
    },
    {
      "inputs": [
        {
          "internalType": "uint256",
          "name": "billId",
          "type": "uint256"
        }
      ],
      "name": "completeBill",
      "outputs": [],
      "stateMutability": "nonpayable",
      "type": "function"
    },
    {
      "inputs": [
        {
          "internalType": "uint256",
          "name": "billId",
          "type": "uint256"
        }
      ],
      "name": "getBill",
      "outputs": [
        {
          "components": [
            {
              "internalType": "address",
              "name": "payer",
              "type": "address"
            },
            {
              "internalType": "string",
              "name": "billType",
              "type": "string"
            },
            {
              "internalType": "string",
              "name": "accountNumber",
              "type": "string"
            },
            {
              "internalType": "uint256",
              "name": "amount",
              "type": "uint256"
            },
            {
              "internalType": "bool",
              "name": "completed",
              "type": "bool"
            },
            {
              "internalType": "uint256",
              "name": "timestamp",
              "type": "uint256"
            }
          ],
          "internalType": "struct BillPayEscrow.Bill",
          "name": "",
          "type": "tuple"
        }
      ],
      "stateMutability": "view",
      "type": "function"
    },
    {
      "inputs": [],
      "name": "getBillCount",
      "outputs": [
        {
          "internalType": "uint256",
          "name": "",
          "type": "uint256"
        }
      ],
      "stateMutability": "view",
      "type": "function"
    },
    {
      "inputs": [
        {
          "internalType": "string",
          "name": "billType",
          "type": "string"
        },
        {
          "internalType": "string",
          "name": "accountNumber",
          "type": "string"
        },
        {
          "internalType": "uint256",
          "name": "amount",
          "type": "uint256"
        }
      ],
      "name": "payBill",
      "outputs": [
        {
          "internalType": "uint256",
          "name": "",
          "type": "uint256"
        }
      ],
      "stateMutability": "nonpayable",
      "type": "function"
    }
  ],
  "bytecode": "0x60a0604052348015600f57600080fd5b50604051610d81380380610d81833981016040819052602c91603c565b6001600160a01b0316608052606a565b600060208284031215604d57600080fd5b81516001600160a01b0381168114606357600080fd5b9392505050565b608051610cef6100926000396000818160bf0152818161015301526107cd0152610cef6000f3fe608060405234801561001057600080fd5b50600436106100625760003560e01c806303604b09146100675780631883c7cc1461008d57806328bdcde8146100955780633930ea18146100ba578063b1cd06e6146100f9578063fb4de28314610119575b600080fd5b61007a61007536600461094a565b61012e565b6040519081526020015b60405180910390f35b60005461007a565b6100a86100a33660046109bd565b610363565b60405161008496959493929190610a1c565b6100e17f000000000000000000000000000000000000000000000000000000000000000081565b6040516001600160a01b039091168152602001610084565b61010c6101073660046109bd565b6104cb565b6040516100849190610a71565b61012c6101273660046109bd565b6106e0565b005b6040516323b872dd60e01b8152336004820152306024820152604481018290526000907f00000000000000000000000000000000000000000000000000000000000000006001600160a01b0316906323b872dd906064016020604051808303816000875af11580156101a4573d6000803e3d6000fd5b505050506040513d601f19601f820116820180604052508101906101c89190610ae9565b61020a5760405162461bcd60e51b815260206004820152600e60248201526d14185e5b595b9d0819985a5b195960921b60448201526064015b60405180910390fd5b6040805160c08101825233815260208101868152918101859052606081018490526000608082018190524260a0830152805460018101825590805281517f290decd9548b62a8d60345a988386fc84ba6bc95484008f6362f93160ef3e563600690920291820180546001600160a01b0319166001600160a01b0390921691909117815592519192917f290decd9548b62a8d60345a988386fc84ba6bc95484008f6362f93160ef3e564909101906102c19082610b9b565b50604082015160028201906102d69082610b9b565b5060608201516003820155608082015160048201805460ff191691151591909117905560a0909101516005909101556000805461031590600190610c5a565b9050336001600160a01b0316817f57401ad5695cc5af16d6cb9523f872b307c5585e5353f5e5aadee048ffb8e00b8786604051610353929190610c81565b60405180910390a3949350505050565b6000818154811061037357600080fd5b6000918252602090912060069091020180546001820180546001600160a01b039092169350906103a290610b12565b80601f01602080910402602001604051908101604052809291908181526020018280546103ce90610b12565b801561041b5780601f106103f05761010080835404028352916020019161041b565b820191906000526020600020905b8154815290600101906020018083116103fe57829003601f168201915b50505050509080600201805461043090610b12565b80601f016020809104026020016040519081016040528092919081815260200182805461045c90610b12565b80156104a95780601f1061047e576101008083540402835291602001916104a9565b820191906000526020600020905b81548152906001019060200180831161048c57829003601f168201915b50505050600383015460048401546005909401549293909260ff909116915086565b61050f6040518060c0016040528060006001600160a01b03168152602001606081526020016060815260200160008152602001600015158152602001600081525090565b600054821061054f5760405162461bcd60e51b815260206004820152600c60248201526b125b9d985b1a5908189a5b1b60a21b6044820152606401610201565b6000828154811061056257610562610ca3565b60009182526020918290206040805160c0810190915260069092020180546001600160a01b0316825260018101805492939192918401916105a290610b12565b80601f01602080910402602001604051908101604052809291908181526020018280546105ce90610b12565b801561061b5780601f106105f05761010080835404028352916020019161061b565b820191906000526020600020905b8154815290600101906020018083116105fe57829003601f168201915b5050505050815260200160028201805461063490610b12565b80601f016020809104026020016040519081016040528092919081815260200182805461066090610b12565b80156106ad5780601f10610682576101008083540402835291602001916106ad565b820191906000526020600020905b81548152906001019060200180831161069057829003601f168201915b505050918352505060038201546020820152600482015460ff161515604082015260059091015460609091015292915050565b60005481106107205760405162461bcd60e51b815260206004820152600c60248201526b125b9d985b1a5908189a5b1b60a21b6044820152606401610201565b600080828154811061073457610734610ca3565b60009182526020909120600690910201600481015490915060ff16156107905760405162461bcd60e51b8152602060048201526011602482015270105b1c9958591e4818dbdb5c1b195d1959607a1b6044820152606401610201565b6004818101805460ff191660011790558154600383015460405163a9059cbb60e01b81526001600160a01b039283169381019390935260248301527f0000000000000000000000000000000000000000000000000000000000000000169063a9059cbb906044016020604051808303816000875af1158015610816573d6000803e3d6000fd5b505050506040513d601f19601f8201168201806040525081019061083a9190610ae9565b6108765760405162461bcd60e51b815260206004820152600d60248201526c1499599d5b990819985a5b1959609a1b6044820152606401610201565b60405182907ff0c9fb34f4a4597a2fb735a6c8391143dd8b76ebcf01256c6691612286e5581890600090a25050565b634e487b7160e01b600052604160045260246000fd5b600082601f8301126108cc57600080fd5b813567ffffffffffffffff8111156108e6576108e66108a5565b604051601f8201601f19908116603f0116810167ffffffffffffffff81118282101715610915576109156108a5565b60405281815283820160200185101561092d57600080fd5b816020850160208301376000918101602001919091529392505050565b60008060006060848603121561095f57600080fd5b833567ffffffffffffffff81111561097657600080fd5b610982868287016108bb565b935050602084013567ffffffffffffffff81111561099f57600080fd5b6109ab868287016108bb565b93969395505050506040919091013590565b6000602082840312156109cf57600080fd5b5035919050565b6000815180845260005b818110156109fc576020818501810151868301820152016109e0565b506000602082860101526020601f19601f83011685010191505092915050565b6001600160a01b038716815260c060208201819052600090610a40908301886109d6565b8281036040840152610a5281886109d6565b60608401969096525050911515608083015260a0909101529392505050565b602080825282516001600160a01b03168282015282015160c06040830152600090610a9f60e08401826109d6565b90506040840151601f19848303016060850152610abc82826109d6565b915050606084015160808401526080840151151560a084015260a084015160c08401528091505092915050565b600060208284031215610afb57600080fd5b81518015158114610b0b57600080fd5b9392505050565b600181811c90821680610b2657607f821691505b602082108103610b4657634e487b7160e01b600052602260045260246000fd5b50919050565b601f821115610b9657806000526020600020601f840160051c81016020851015610b735750805b601f840160051c820191505b81811015610b935760008155600101610b7f565b50505b505050565b815167ffffffffffffffff811115610bb557610bb56108a5565b610bc981610bc38454610b12565b84610b4c565b6020601f821160018114610bfd5760008315610be55750848201515b600019600385901b1c1916600184901b178455610b93565b600084815260208120601f198516915b82811015610c2d5787850151825560209485019460019092019101610c0d565b5084821015610c4b5786840151600019600387901b60f8161c191681555b50505050600190811b01905550565b81810381811115610c7b57634e487b7160e01b600052601160045260246000fd5b92915050565b604081526000610c9460408301856109d6565b90508260208301529392505050565b634e487b7160e01b600052603260045260246000fdfea2646970667358221220d64eefeb0f3fbbbd340ebd5b1d84593bf711385aa68c7b659f1bbce1d059d39e64736f6c634300081c0033",
  "linkReferences": {},
  "deployedLinkReferences": {}
}