{
  "_format": "hh-sol-artifact-1",
  "contractName": "CeloNaija",
  "sourceName": "contracts/CeloNaija.sol",
  "abi": [
    {
      "inputs": [
        {
          "internalType": "address",
          "name": "_cngn",
          "type": "address"
        }
      ],
      "stateMutability": "nonpayable",
      "type": "constructor"
    },
    {
      "anonymous": false,
      "inputs": [
        {
          "indexed": true,
          "internalType": "address",
          "name": "buyer",
          "type": "address"
        },
        {
          "indexed": false,
          "internalType": "uint256",
          "name": "amount",
          "type": "uint256"
        },
        {
          "indexed": false,
          "internalType": "string",
          "name": "provider",
          "type": "string"
        }
      ],
      "name": "AirtimePurchase",
      "type": "event"
    },
    {
      "anonymous": false,
      "inputs": [
        {
          "indexed": true,
          "internalType": "address",
          "name": "wallet",
          "type": "address"
        },
        {
          "indexed": false,
          "internalType": "string",
          "name": "phone",
          "type": "string"
        }
      ],
      "name": "PhoneLinked",
      "type": "event"
    },
    {
      "anonymous": false,
      "inputs": [
        {
          "indexed": true,
          "internalType": "address",
          "name": "from",
          "type": "address"
        },
        {
          "indexed": true,
          "internalType": "address",
          "name": "to",
          "type": "address"
        },
        {
          "indexed": false,
          "internalType": "uint256",
          "name": "amount",
          "type": "uint256"
        },
        {
          "indexed": false,
          "internalType": "string",
          "name": "purpose",
          "type": "string"
        }
      ],
      "name": "Sent",
      "type": "event"
    },
    {
      "inputs": [
        {
          "internalType": "uint256",
          "name": "amount",
          "type": "uint256"
        },
        {
          "internalType": "string",
          "name": "provider",
          "type": "string"
        }
      ],
      "name": "buyAirtime",
      "outputs": [],
      "stateMutability": "nonpayable",
      "type": "function"
    },
    {
      "inputs": [],
      "name": "cngn",
      "outputs": [
        {
          "internalType": "contract IERC20",
          "name": "",
          "type": "address"
        }
      ],
      "stateMutability": "view",
      "type": "function"
    },
    {
      "inputs": [
        {
          "internalType": "string",
          "name": "phone",
          "type": "string"
        }
      ],
      "name": "linkPhone",
      "outputs": [],
      "stateMutability": "nonpayable",
      "type": "function"
    },
    {
      "inputs": [
        {
          "internalType": "string",
          "name": "",
          "type": "string"
        }
      ],
      "name": "phoneToWallet",
      "outputs": [
        {
          "internalType": "address",
          "name": "",
          "type": "address"
        }
      ],
      "stateMutability": "view",
      "type": "function"
    },
    {
      "inputs": [
        {
          "internalType": "string",
          "name": "toPhone",
          "type": "string"
        },
        {
          "internalType": "uint256",
          "name": "amount",
          "type": "uint256"
        },
        {
          "internalType": "string",
          "name": "purpose",
          "type": "string"
        }
      ],
      "name": "sendToPhone",
      "outputs": [],
      "stateMutability": "nonpayable",
      "type": "function"
    },
    {
      "inputs": [
        {
          "internalType": "address",
          "name": "to",
          "type": "address"
        },
        {
          "internalType": "uint256",
          "name": "amount",
          "type": "uint256"
        },
        {
          "internalType": "string",
          "name": "purpose",
          "type": "string"
        }
      ],
      "name": "sendToWallet",
      "outputs": [],
      "stateMutability": "nonpayable",
      "type": "function"
    },
    {
      "inputs": [
        {
          "internalType": "address",
          "name": "",
          "type": "address"
        }
      ],
      "name": "walletToPhone",
      "outputs": [
        {
          "internalType": "string",
          "name": "",
          "type": "string"
        }
      ],
      "stateMutability": "view",
      "type": "function"
    }
  ],
  "bytecode": "0x60a060405234801561001057600080fd5b50604051610bb7380380610bb783398101604081905261002f91610040565b6001600160a01b0316608052610070565b60006020828403121561005257600080fd5b81516001600160a01b038116811461006957600080fd5b9392505050565b608051610b1861009f6000396000818160c5015281816102280152818161035201526105c80152610b186000f3fe608060405234801561001057600080fd5b506004361061007d5760003560e01c80638a57514a1161005b5780638a57514a146100ff5780639b893bbf14610112578063a6a7701414610146578063cd12d9de1461015957600080fd5b806324a041ba1461008257806331604edd146100ab5780633930ea18146100c0575b600080fd5b6100956100903660046106e2565b61016c565b6040516100a29190610754565b60405180910390f35b6100be6100b936600461080c565b610206565b005b6100e77f000000000000000000000000000000000000000000000000000000000000000081565b6040516001600160a01b0390911681526020016100a2565b6100be61010d366004610853565b610326565b6100e76101203660046108aa565b80516020818301810180516000825292820191909301209152546001600160a01b031681565b6100be6101543660046108aa565b61044f565b6100be6101673660046108e7565b61052c565b6001602052600090815260409020805461018590610943565b80601f01602080910402602001604051908101604052809291908181526020018280546101b190610943565b80156101fe5780601f106101d3576101008083540402835291602001916101fe565b820191906000526020600020905b8154815290600101906020018083116101e157829003601f168201915b505050505081565b6040516323b872dd60e01b8152336004820152306024820152604481018390527f00000000000000000000000000000000000000000000000000000000000000006001600160a01b0316906323b872dd906064016020604051808303816000875af1158015610279573d6000803e3d6000fd5b505050506040513d601f19601f8201168201806040525081019061029d919061097d565b6102df5760405162461bcd60e51b815260206004820152600e60248201526d14185e5b595b9d0819985a5b195960921b60448201526064015b60405180910390fd5b336001600160a01b03167f4d1df7e715b8d15b3e361c9be8b07fd1f6acf6ff64e3f1a7c30c26a44a7e2577838360405161031a92919061099f565b60405180910390a25050565b6040516323b872dd60e01b81523360048201526001600160a01b038481166024830152604482018490527f000000000000000000000000000000000000000000000000000000000000000016906323b872dd906064016020604051808303816000875af115801561039b573d6000803e3d6000fd5b505050506040513d601f19601f820116820180604052508101906103bf919061097d565b6103fd5760405162461bcd60e51b815260206004820152600f60248201526e151c985b9cd9995c8819985a5b1959608a1b60448201526064016102d6565b826001600160a01b0316336001600160a01b03167f02605d54d67ccbe0064a8ce6c39465102dd02b85ad8709391c5953a27083964b848460405161044292919061099f565b60405180910390a3505050565b60008151116104905760405162461bcd60e51b815260206004820152600d60248201526c496e76616c69642070686f6e6560981b60448201526064016102d6565b336000826040516104a191906109b8565b908152604080516020928190038301902080546001600160a01b0319166001600160a01b0394909416939093179092553360009081526001909152206104e78282610a23565b50336001600160a01b03167fb59f35fb00a35da6064e898306fd5f83a7d4a3e1f28c8ed3d5da38c763e5ef41826040516105219190610754565b60405180910390a250565b6000808460405161053d91906109b8565b908152604051908190036020019020546001600160a01b031690508061059c5760405162461bcd60e51b8152602060048201526014602482015273141a1bdb99481b9bdd081c9959da5cdd195c995960621b60448201526064016102d6565b6040516323b872dd60e01b81523360048201526001600160a01b038281166024830152604482018590527f000000000000000000000000000000000000000000000000000000000000000016906323b872dd906064016020604051808303816000875af1158015610611573d6000803e3d6000fd5b505050506040513d601f19601f82011682018060405250810190610635919061097d565b6106735760405162461bcd60e51b815260206004820152600f60248201526e151c985b9cd9995c8819985a5b1959608a1b60448201526064016102d6565b806001600160a01b0316336001600160a01b03167f02605d54d67ccbe0064a8ce6c39465102dd02b85ad8709391c5953a27083964b85856040516106b892919061099f565b60405180910390a350505050565b80356001600160a01b03811681146106dd57600080fd5b919050565b6000602082840312156106f457600080fd5b6106fd826106c6565b9392505050565b60005b8381101561071f578181015183820152602001610707565b50506000910152565b60008151808452610740816020860160208601610704565b601f01601f19169290920160200192915050565b6020815260006106fd6020830184610728565b634e487b7160e01b600052604160045260246000fd5b600082601f83011261078e57600080fd5b813567ffffffffffffffff8111156107a8576107a8610767565b604051601f8201601f19908116603f0116810167ffffffffffffffff811182821017156107d7576107d7610767565b6040528181528382016020018510156107ef57600080fd5b816020850160208301376000918101602001919091529392505050565b6000806040838503121561081f57600080fd5b82359150602083013567ffffffffffffffff81111561083d57600080fd5b6108498582860161077d565b9150509250929050565b60008060006060848603121561086857600080fd5b610871846106c6565b925060208401359150604084013567ffffffffffffffff81111561089457600080fd5b6108a08682870161077d565b9150509250925092565b6000602082840312156108bc57600080fd5b813567ffffffffffffffff8111156108d357600080fd5b6108df8482850161077d565b949350505050565b6000806000606084860312156108fc57600080fd5b833567ffffffffffffffff81111561091357600080fd5b61091f8682870161077d565b93505060208401359150604084013567ffffffffffffffff81111561089457600080fd5b600181811c9082168061095757607f821691505b60208210810361097757634e487b7160e01b600052602260045260246000fd5b50919050565b60006020828403121561098f57600080fd5b815180151581146106fd57600080fd5b8281526040602082015260006108df6040830184610728565b600082516109ca818460208701610704565b9190910192915050565b601f821115610a1e57806000526020600020601f840160051c810160208510156109fb5750805b601f840160051c820191505b81811015610a1b5760008155600101610a07565b50505b505050565b815167ffffffffffffffff811115610a3d57610a3d610767565b610a5181610a4b8454610943565b846109d4565b6020601f821160018114610a855760008315610a6d5750848201515b600019600385901b1c1916600184901b178455610a1b565b600084815260208120601f198516915b82811015610ab55787850151825560209485019460019092019101610a95565b5084821015610ad35786840151600019600387901b60f8161c191681555b50505050600190811b0190555056fea26469706673582212200c3adfa92ddf6eaa9620b0ff8c6acc299281fa5ea346d083c4086682ddf2460d64736f6c634300081c0033",
  "linkReferences": {},
  "deployedLinkReferences": {}
}